:020000040000FA
:060000004EEF01F01200BA
:0A0006000100F40200008A0000006F
:0400100003000000E9
:0C001400060EF66E000EF76E000EF86E81
:1000200000010900F550856F0900F550866F03E166
:10003000856701D03DD00900F550806F0900F5506B
:10004000816F0900F550826F09000900F550E96ED3
:100050000900F550EA6E090009000900F550836FA8
:100060000900F550846F09000900F6CF87F0F7CF3B
:1000700088F0F8CF89F080C0F6FF81C0F7FF82C01A
:10008000F8FF0001835302E1845307E00900F550B3
:10009000EE6E8307F8E28407F9D787C0F6FF88C0C1
:1000A000F7FF89C0F8FF00018507000E865BBFD708
:0200B00012003C
:0E00B20094941E0EE66EE66AD3EC00F0E55262
:1000C000E552060EE66E17EC01F0E5521200000153
:1000D0008D6B8E6B030E8EAF02D0D89003D08D5DEA
:1000E000000E8E591FE28A0E8D25E96E000E8E21BC
:1000F000EA6EEF50E66E2CEC01F0E552280EE66E4B
:1001000000EC01F0E552010EE66E2CEC01F0E55238
:10011000280EE66E00EC01F0E55200018D2B000E7A
:100120008E23D8D7280EE66E00EC01F0E5521200BF
:0A013000C0DFCDDFFED70300120090
:06013A00D9CFE6FFE1CF82
:10014000D9FF030EE126F8CF01F0F6CF02F0FE0E44
:10015000DB80DB82DB84DB86DB88DB8AFD0EDB84F5
:10016000DB86DB88DB8ADB8CDB8EFE0EDBCFE6FFFB
:10017000C00EBD10E552E714BD6EFD0EDBCFE6FFED
:100180000F0EBD10E552E714BD6E01C0F8FF02C0AE
:10019000F6FF030EE15C02E2E16AE552E16EE55230
:0601A000E7CFD9FF1200B9
:0A01A600D9CFE6FFE1CFD9FF020E2A
:1001B000E126FD0EDBCF02F0FE0EDBCF03F0060ED4
:1001C000D89002360336E804FBE102C0DEFF03C02C
:1001D000DDFF010EDB50BE6EDF50E840E8403F0B14
:1001E000300B026ECF0EBD140210BD6E020EE15C2C
:1001F00002E2E16AE552E16EE552E7CFD9FF120073
:10020000FF0EE350056EEF0E01D0F30EE76EE72E02
:1002100007EF01F00C0E046EE76AE72E0DEF01F018
:0E022000042E0CEF01F0052E05EF01F0120088
:02022E00D9CF26
:10023000E6FFE1CFD9FFFE0EDB50FB0BCA6ECC6AA6
:100240009E92FE0EDBAE02D09D8201D09D92CA84AA
:08025000E552E7CFD9FF1200CF
:08025800D9CFE6FFE1CFD9FF89
:100260000C0EBD129494CA94FE0EDB50CB6ECA8461
:0C027000E552E7CFD9FF12009494120071
:04027C00000EF36E0F
:1002800000EE00F0060E01D81200EA6002D0EE6A1D
:0C029000FCD7F350E9601200EE6AFCD7C6
:04029C0015EE00F06B
:1002A00025EE00F0F86A019C0AEC00F079EC01F010
:0802B00098EC00F0FBD71200EE
:0802B800D9CFE6FFE1CFD9FF29
:1002C000E652CC50DF6EDF50E552E552E7CFD9FF62
:0202D00012001A
:0E02D200D9CFE6FFE1CFD9FFFE0EDB50CC6E98
:0802E000E552E7CFD9FF12003F
:0602E800CA949D92120071
:0202EE00BD6AE7
:0202F0001200FA
:0202F2001200F8
:0302F400EDEDED40
:020000040030CA
:0100010022DC
:010003000EEE
:010006008178
:00000001FF
